{
  "contractName": "Faucet",
  "abi": [
    {
      "inputs": [],
      "stateMutability": "nonpayable",
      "type": "constructor"
    },
    {
      "inputs": [],
      "name": "numOfFunders",
      "outputs": [
        {
          "internalType": "uint256",
          "name": "",
          "type": "uint256"
        }
      ],
      "stateMutability": "view",
      "type": "function",
      "constant": true
    },
    {
      "inputs": [],
      "name": "owner",
      "outputs": [
        {
          "internalType": "address",
          "name": "",
          "type": "address"
        }
      ],
      "stateMutability": "view",
      "type": "function",
      "constant": true
    },
    {
      "stateMutability": "payable",
      "type": "receive",
      "payable": true
    },
    {
      "inputs": [],
      "name": "test1",
      "outputs": [],
      "stateMutability": "nonpayable",
      "type": "function"
    },
    {
      "inputs": [],
      "name": "addFunds",
      "outputs": [],
      "stateMutability": "payable",
      "type": "function",
      "payable": true
    },
    {
      "inputs": [
        {
          "internalType": "uint256",
          "name": "withdrawAmount",
          "type": "uint256"
        }
      ],
      "name": "withdraw",
      "outputs": [],
      "stateMutability": "nonpayable",
      "type": "function"
    },
    {
      "inputs": [],
      "name": "getAllFunders",
      "outputs": [
        {
          "internalType": "address[]",
          "name": "",
          "type": "address[]"
        }
      ],
      "stateMutability": "view",
      "type": "function",
      "constant": true
    },
    {
      "inputs": [
        {
          "internalType": "uint8",
          "name": "index",
          "type": "uint8"
        }
      ],
      "name": "getFunderAtIndex",
      "outputs": [
        {
          "internalType": "address",
          "name": "",
          "type": "address"
        }
      ],
      "stateMutability": "view",
      "type": "function",
      "constant": true
    }
  ],
  "bytecode": "0x608060405234801561001057600080fd5b5033600160006101000a81548173ffffffffffffffffffffffffffffffffffffffff021916908373ffffffffffffffffffffffffffffffffffffffff16021790555061098b806100616000396000f3fe6080604052600436106100745760003560e01c80636fbbb55d1161004e5780636fbbb55d146100fd5780638da5cb5b14610128578063a26759cb14610153578063af7f2c9b1461015d5761007b565b80630a93cf33146100805780632e1a7d4d146100bd5780636b59084d146100e65761007b565b3661007b57005b600080fd5b34801561008c57600080fd5b506100a760048036038101906100a291906105d4565b610188565b6040516100b491906106e6565b60405180910390f35b3480156100c957600080fd5b506100e460048036038101906100df91906105ab565b6101c8565b005b3480156100f257600080fd5b506100fb61025f565b005b34801561010957600080fd5b506101126102f1565b60405161011f9190610701565b60405180910390f35b34801561013457600080fd5b5061013d610436565b60405161014a91906106e6565b60405180910390f35b61015b61045c565b005b34801561016957600080fd5b5061017261057b565b60405161017f9190610763565b60405180910390f35b6000600360008360ff16815260200190815260200160002060009054906101000a900473ffffffffffffffffffffffffffffffffffffffff169050919050565b80670de0b6b3a7640000811115610214576040517f08c379a000000000000000000000000000000000000000000000000000000000815260040161020b90610743565b60405180910390fd5b3373ffffffffffffffffffffffffffffffffffffffff166108fc839081150290604051600060405180830381858888f1935050505015801561025a573d6000803e3d6000fd5b505050565b600160009054906101000a900473ffffffffffffffffffffffffffffffffffffffff1673ffffffffffffffffffffffffffffffffffffffff163373ffffffffffffffffffffffffffffffffffffffff16146102ef576040517f08c379a00000000000000000000000000000000000000000000000000000000081526004016102e690610723565b60405180910390fd5b565b60606000805467ffffffffffffffff811115610336577f4e487b7100000000000000000000000000000000000000000000000000000000600052604160045260246000fd5b6040519080825280602002602001820160405280156103645781602001602082028036833780820191505090505b50905060005b60005481101561042e576003600082815260200190815260200160002060009054906101000a900473ffffffffffffffffffffffffffffffffffffffff168282815181106103e1577f4e487b7100000000000000000000000000000000000000000000000000000000600052603260045260246000fd5b602002602001019073ffffffffffffffffffffffffffffffffffffffff16908173ffffffffffffffffffffffffffffffffffffffff1681525050808061042690610811565b91505061036a565b508091505090565b600160009054906101000a900473ffffffffffffffffffffffffffffffffffffffff1681565b6000339050600260008273ffffffffffffffffffffffffffffffffffffffff1673ffffffffffffffffffffffffffffffffffffffff16815260200190815260200160002060009054906101000a900460ff166105785760008060008154809291906104c690610811565b9190505590506001600260008473ffffffffffffffffffffffffffffffffffffffff1673ffffffffffffffffffffffffffffffffffffffff16815260200190815260200160002060006101000a81548160ff021916908315150217905550816003600083815260200190815260200160002060006101000a81548173ffffffffffffffffffffffffffffffffffffffff021916908373ffffffffffffffffffffffffffffffffffffffff160217905550505b50565b60005481565b60008135905061059081610927565b92915050565b6000813590506105a58161093e565b92915050565b6000602082840312156105bd57600080fd5b60006105cb84828501610581565b91505092915050565b6000602082840312156105e657600080fd5b60006105f484828501610596565b91505092915050565b60006106098383610615565b60208301905092915050565b61061e816107c8565b82525050565b61062d816107c8565b82525050565b600061063e8261078e565b61064881856107a6565b93506106538361077e565b8060005b8381101561068457815161066b88826105fd565b975061067683610799565b925050600181019050610657565b5085935050505092915050565b600061069e602e836107b7565b91506106a982610889565b604082019050919050565b60006106c1602a836107b7565b91506106cc826108d8565b604082019050919050565b6106e0816107fa565b82525050565b60006020820190506106fb6000830184610624565b92915050565b6000602082019050818103600083015261071b8184610633565b905092915050565b6000602082019050818103600083015261073c81610691565b9050919050565b6000602082019050818103600083015261075c816106b4565b9050919050565b600060208201905061077860008301846106d7565b92915050565b6000819050602082019050919050565b600081519050919050565b6000602082019050919050565b600082825260208201905092915050565b600082825260208201905092915050565b60006107d3826107da565b9050919050565b600073ffffffffffffffffffffffffffffffffffffffff82169050919050565b6000819050919050565b600060ff82169050919050565b600061081c826107fa565b91507fffffffffffffffffffffffffffffffffffffffffffffffffffffffffffffffff82141561084f5761084e61085a565b5b600182019050919050565b7f4e487b7100000000000000000000000000000000000000000000000000000000600052601160045260246000fd5b7f546869732066756e6374696f6e2063616e206f6e6c792062652065786563757460008201527f656420627920616e2061646d696e000000000000000000000000000000000000602082015250565b7f52657175657374656420616d6f756e74206578636565647320746865206d617860008201527f696d756d2076616c756500000000000000000000000000000000000000000000602082015250565b610930816107fa565b811461093b57600080fd5b50565b61094781610804565b811461095257600080fd5b5056fea26469706673582212202b4f0ca573c58f4f78abfe31547216a460a35ac81c957abfd1898cc81146edb664736f6c63430008010033",
  "immutableReferences": {},
  "source": "// SPDX-License-Identifier: MIT\r\npragma solidity >=0.4.22 <0.9.0;\r\n\r\ncontract Faucet{\r\n    \r\n    uint public numOfFunders;\r\n    address public owner;\r\n    mapping(address => bool) private funders;\r\n    mapping(uint => address) private lutFunders;\r\n\r\n    constructor(){\r\n        owner = msg.sender;\r\n    }\r\n\r\n    modifier onlyOwner{\r\n        require(\r\n            msg.sender == owner, \"This function can only be executed by an admin\"\r\n        );\r\n        _;\r\n    }\r\n\r\n    function test1() external onlyOwner{\r\n\r\n    }\r\n\r\n    modifier limitWithdraw(uint withdrawAmount) {\r\n        require(\r\n            withdrawAmount <= 1000000000000000000, \"Requested amount exceeds the maximum value\"\r\n        );\r\n        _;\r\n    }\r\n\r\n    receive() external payable{}\r\n\r\n    function addFunds() external payable{\r\n        address funder = msg.sender;\r\n        \r\n        if(!funders[funder]){\r\n            uint index = numOfFunders++;\r\n            funders[funder] = true;\r\n            lutFunders[index] = funder;\r\n        }\r\n    }\r\n\r\n    function withdraw(uint withdrawAmount) external limitWithdraw(withdrawAmount){\r\n        payable(msg.sender).transfer(withdrawAmount);\r\n    }\r\n\r\n    function getAllFunders() external view returns(address[] memory){\r\n        address[] memory _funders = new address[](numOfFunders);\r\n\r\n        for(uint i = 0; i < numOfFunders; i++){\r\n            _funders[i] = lutFunders[i];\r\n        }\r\n        return _funders;\r\n    }\r\n    \r\n    function getFunderAtIndex(uint8 index) external view returns(address){\r\n        return lutFunders[index];\r\n    }\r\n}\r\n\r\n// instance.addFunds({from: accounts[2], value: \"20000000000000000\"})",
  "sourcePath": "C:\\Users\\Nnam Darlington\\Desktop\\programming\\programming tutorials\\Blockchain Dev\\Projects\\Faucet\\contracts\\FaucetContract.sol",
  "compiler": {
    "name": "solc",
    "version": "0.8.1+commit.df193b15.Emscripten.clang"
  },
  "schemaVersion": "3.4.5",
  "updatedAt": "2022-03-03T02:23:51.397Z",
  "networkType": "ethereum",
  "devdoc": {
    "kind": "dev",
    "methods": {},
    "version": 1
  },
  "userdoc": {
    "kind": "user",
    "methods": {},
    "version": 1
  }
}